{
  "_format": "hh-sol-artifact-1",
  "contractName": "MyEpicNFT",
  "sourceName": "contracts/MyEpicNFT.sol",
  "abi": [
    {
      "inputs": [],
      "stateMutability": "nonpayable",
      "type": "constructor"
    },
    {
      "anonymous": false,
      "inputs": [
        {
          "indexed": true,
          "internalType": "address",
          "name": "owner",
          "type": "address"
        },
        {
          "indexed": true,
          "internalType": "address",
          "name": "approved",
          "type": "address"
        },
        {
          "indexed": true,
          "internalType": "uint256",
          "name": "tokenId",
          "type": "uint256"
        }
      ],
      "name": "Approval",
      "type": "event"
    },
    {
      "anonymous": false,
      "inputs": [
        {
          "indexed": true,
          "internalType": "address",
          "name": "owner",
          "type": "address"
        },
        {
          "indexed": true,
          "internalType": "address",
          "name": "operator",
          "type": "address"
        },
        {
          "indexed": false,
          "internalType": "bool",
          "name": "approved",
          "type": "bool"
        }
      ],
      "name": "ApprovalForAll",
      "type": "event"
    },
    {
      "anonymous": false,
      "inputs": [
        {
          "indexed": false,
          "internalType": "address",
          "name": "sender",
          "type": "address"
        },
        {
          "indexed": false,
          "internalType": "uint256",
          "name": "tokenId",
          "type": "uint256"
        }
      ],
      "name": "NewEpicNFTMinted",
      "type": "event"
    },
    {
      "anonymous": false,
      "inputs": [
        {
          "indexed": true,
          "internalType": "address",
          "name": "from",
          "type": "address"
        },
        {
          "indexed": true,
          "internalType": "address",
          "name": "to",
          "type": "address"
        },
        {
          "indexed": true,
          "internalType": "uint256",
          "name": "tokenId",
          "type": "uint256"
        }
      ],
      "name": "Transfer",
      "type": "event"
    },
    {
      "inputs": [
        {
          "internalType": "address",
          "name": "to",
          "type": "address"
        },
        {
          "internalType": "uint256",
          "name": "tokenId",
          "type": "uint256"
        }
      ],
      "name": "approve",
      "outputs": [],
      "stateMutability": "nonpayable",
      "type": "function"
    },
    {
      "inputs": [
        {
          "internalType": "address",
          "name": "owner",
          "type": "address"
        }
      ],
      "name": "balanceOf",
      "outputs": [
        {
          "internalType": "uint256",
          "name": "",
          "type": "uint256"
        }
      ],
      "stateMutability": "view",
      "type": "function"
    },
    {
      "inputs": [
        {
          "internalType": "uint256",
          "name": "tokenId",
          "type": "uint256"
        }
      ],
      "name": "getApproved",
      "outputs": [
        {
          "internalType": "address",
          "name": "",
          "type": "address"
        }
      ],
      "stateMutability": "view",
      "type": "function"
    },
    {
      "inputs": [],
      "name": "getTotalNFTsMintedSoFar",
      "outputs": [
        {
          "internalType": "uint256",
          "name": "",
          "type": "uint256"
        }
      ],
      "stateMutability": "view",
      "type": "function"
    },
    {
      "inputs": [
        {
          "internalType": "address",
          "name": "owner",
          "type": "address"
        },
        {
          "internalType": "address",
          "name": "operator",
          "type": "address"
        }
      ],
      "name": "isApprovedForAll",
      "outputs": [
        {
          "internalType": "bool",
          "name": "",
          "type": "bool"
        }
      ],
      "stateMutability": "view",
      "type": "function"
    },
    {
      "inputs": [],
      "name": "makeAnEpicNFT",
      "outputs": [],
      "stateMutability": "nonpayable",
      "type": "function"
    },
    {
      "inputs": [],
      "name": "name",
      "outputs": [
        {
          "internalType": "string",
          "name": "",
          "type": "string"
        }
      ],
      "stateMutability": "view",
      "type": "function"
    },
    {
      "inputs": [
        {
          "internalType": "uint256",
          "name": "tokenId",
          "type": "uint256"
        }
      ],
      "name": "ownerOf",
      "outputs": [
        {
          "internalType": "address",
          "name": "",
          "type": "address"
        }
      ],
      "stateMutability": "view",
      "type": "function"
    },
    {
      "inputs": [
        {
          "internalType": "string",
          "name": "randomWord",
          "type": "string"
        },
        {
          "internalType": "address",
          "name": "minter",
          "type": "address"
        }
      ],
      "name": "pickRandomColor",
      "outputs": [
        {
          "internalType": "string",
          "name": "",
          "type": "string"
        }
      ],
      "stateMutability": "view",
      "type": "function"
    },
    {
      "inputs": [
        {
          "internalType": "uint256",
          "name": "tokenId",
          "type": "uint256"
        }
      ],
      "name": "pickRandomFirstWord",
      "outputs": [
        {
          "internalType": "string",
          "name": "",
          "type": "string"
        }
      ],
      "stateMutability": "view",
      "type": "function"
    },
    {
      "inputs": [
        {
          "internalType": "uint256",
          "name": "tokenId",
          "type": "uint256"
        }
      ],
      "name": "pickRandomSecondWord",
      "outputs": [
        {
          "internalType": "string",
          "name": "",
          "type": "string"
        }
      ],
      "stateMutability": "view",
      "type": "function"
    },
    {
      "inputs": [
        {
          "internalType": "uint256",
          "name": "tokenId",
          "type": "uint256"
        }
      ],
      "name": "pickRandomThirdWord",
      "outputs": [
        {
          "internalType": "string",
          "name": "",
          "type": "string"
        }
      ],
      "stateMutability": "view",
      "type": "function"
    },
    {
      "inputs": [
        {
          "internalType": "address",
          "name": "from",
          "type": "address"
        },
        {
          "internalType": "address",
          "name": "to",
          "type": "address"
        },
        {
          "internalType": "uint256",
          "name": "tokenId",
          "type": "uint256"
        }
      ],
      "name": "safeTransferFrom",
      "outputs": [],
      "stateMutability": "nonpayable",
      "type": "function"
    },
    {
      "inputs": [
        {
          "internalType": "address",
          "name": "from",
          "type": "address"
        },
        {
          "internalType": "address",
          "name": "to",
          "type": "address"
        },
        {
          "internalType": "uint256",
          "name": "tokenId",
          "type": "uint256"
        },
        {
          "internalType": "bytes",
          "name": "_data",
          "type": "bytes"
        }
      ],
      "name": "safeTransferFrom",
      "outputs": [],
      "stateMutability": "nonpayable",
      "type": "function"
    },
    {
      "inputs": [
        {
          "internalType": "address",
          "name": "operator",
          "type": "address"
        },
        {
          "internalType": "bool",
          "name": "approved",
          "type": "bool"
        }
      ],
      "name": "setApprovalForAll",
      "outputs": [],
      "stateMutability": "nonpayable",
      "type": "function"
    },
    {
      "inputs": [
        {
          "internalType": "bytes4",
          "name": "interfaceId",
          "type": "bytes4"
        }
      ],
      "name": "supportsInterface",
      "outputs": [
        {
          "internalType": "bool",
          "name": "",
          "type": "bool"
        }
      ],
      "stateMutability": "view",
      "type": "function"
    },
    {
      "inputs": [],
      "name": "symbol",
      "outputs": [
        {
          "internalType": "string",
          "name": "",
          "type": "string"
        }
      ],
      "stateMutability": "view",
      "type": "function"
    },
    {
      "inputs": [
        {
          "internalType": "uint256",
          "name": "tokenId",
          "type": "uint256"
        }
      ],
      "name": "tokenURI",
      "outputs": [
        {
          "internalType": "string",
          "name": "",
          "type": "string"
        }
      ],
      "stateMutability": "view",
      "type": "function"
    },
    {
      "inputs": [
        {
          "internalType": "address",
          "name": "from",
          "type": "address"
        },
        {
          "internalType": "address",
          "name": "to",
          "type": "address"
        },
        {
          "internalType": "uint256",
          "name": "tokenId",
          "type": "uint256"
        }
      ],
      "name": "transferFrom",
      "outputs": [],
      "stateMutability": "nonpayable",
      "type": "function"
    }
  ],
  "bytecode": "0x608060405260405180610100016040528060d381526020016200583660d3913960089080519060200190620000369291906200109a565b50604051806080016040528060568152602001620059096056913960099080519060200190620000689291906200109a565b506040518061028001604052806040518060400160405280600881526020017f466169746866756c00000000000000000000000000000000000000000000000081525081526020016040518060400160405280600681526020017f506f6c697465000000000000000000000000000000000000000000000000000081525081526020016040518060400160405280600681526020017f536b696e6e79000000000000000000000000000000000000000000000000000081525081526020016040518060400160405280600481526020017f4c6f6e650000000000000000000000000000000000000000000000000000000081525081526020016040518060400160405280600581526020017f526170696400000000000000000000000000000000000000000000000000000081525081526020016040518060400160405280600781526020017f5a65616c6f75730000000000000000000000000000000000000000000000000081525081526020016040518060400160405280600581526020017f5368696e7900000000000000000000000000000000000000000000000000000081525081526020016040518060400160405280600581526020017f46616e637900000000000000000000000000000000000000000000000000000081525081526020016040518060400160405280600681526020017f537469636b79000000000000000000000000000000000000000000000000000081525081526020016040518060400160405280600981526020017f576f6e64657266756c000000000000000000000000000000000000000000000081525081526020016040518060400160405280600481526020017f536c6f770000000000000000000000000000000000000000000000000000000081525081526020016040518060400160405280600681526020017f426f756e6379000000000000000000000000000000000000000000000000000081525081526020016040518060400160405280600681526020017f4d6f6465726e000000000000000000000000000000000000000000000000000081525081526020016040518060400160405280600681526020017f556e69717565000000000000000000000000000000000000000000000000000081525081526020016040518060400160405280600581526020017f4372617a7900000000000000000000000000000000000000000000000000000081525081526020016040518060400160405280600381526020017f486f74000000000000000000000000000000000000000000000000000000000081525081526020016040518060400160405280600781526020017f526566696e65640000000000000000000000000000000000000000000000000081525081526020016040518060400160405280600681526020017f436865657279000000000000000000000000000000000000000000000000000081525081526020016040518060400160405280600581526020017f526173707900000000000000000000000000000000000000000000000000000081525081526020016040518060400160405280600781526020017f5374726970656400000000000000000000000000000000000000000000000000815250815250600a906014620005219291906200112b565b50604051806102a001604052806040518060400160405280600781526020017f546f61737465640000000000000000000000000000000000000000000000000081525081526020016040518060400160405280600581526020017f426569676500000000000000000000000000000000000000000000000000000081525081526020016040518060400160405280600581526020017f416d62657200000000000000000000000000000000000000000000000000000081525081526020016040518060400160405280600581526020017f4c696e656e00000000000000000000000000000000000000000000000000000081525081526020016040518060400160405280600481526020017f53616e640000000000000000000000000000000000000000000000000000000081525081526020016040518060400160405280600981526020017f54616e676572696e65000000000000000000000000000000000000000000000081525081526020016040518060400160405280600581526020017f4b68616b6900000000000000000000000000000000000000000000000000000081525081526020016040518060400160405280600881526020017f496e66726172656400000000000000000000000000000000000000000000000081525081526020016040518060400160405280600681526020017f4368726f6d65000000000000000000000000000000000000000000000000000081525081526020016040518060400160405280600581526020017f426c61636b00000000000000000000000000000000000000000000000000000081525081526020016040518060400160405280600981526020017f4368617261636f616c000000000000000000000000000000000000000000000081525081526020016040518060400160405280600881526020017f477261706869746500000000000000000000000000000000000000000000000081525081526020016040518060400160405280600981526020017f5665726d696c696f6e000000000000000000000000000000000000000000000081525081526020016040518060400160405280600881526020017f526f7365776f6f6400000000000000000000000000000000000000000000000081525081526020016040518060400160405280600681526020017f576f6f64656e000000000000000000000000000000000000000000000000000081525081526020016040518060400160405280600381526020017f526564000000000000000000000000000000000000000000000000000000000081525081526020016040518060400160405280600681526020017f476f6c64656e000000000000000000000000000000000000000000000000000081525081526020016040518060400160405280600681526020017f4f72616e6765000000000000000000000000000000000000000000000000000081525081526020016040518060400160405280600881526020017f53696c766572656400000000000000000000000000000000000000000000000081525081526020016040518060400160405280600981526020017f43686f636f6c617465000000000000000000000000000000000000000000000081525081526020016040518060400160405280600681526020017f436f6f7065720000000000000000000000000000000000000000000000000000815250815250600b90601562000a1592919062001192565b506040518061028001604052806040518060400160405280600381526020017f426174000000000000000000000000000000000000000000000000000000000081525081526020016040518060400160405280600681526020017f506967656f6e000000000000000000000000000000000000000000000000000081525081526020016040518060400160405280600581526020017f4368696d7000000000000000000000000000000000000000000000000000000081525081526020016040518060400160405280600381526020017f466c79000000000000000000000000000000000000000000000000000000000081525081526020016040518060400160405280600781526020017f4c6164796275670000000000000000000000000000000000000000000000000081525081526020016040518060400160405280600881526020017f44696e6f7361757200000000000000000000000000000000000000000000000081525081526020016040518060400160405280600381526020017f426565000000000000000000000000000000000000000000000000000000000081525081526020016040518060400160405280600581526020017f4c6c616d6100000000000000000000000000000000000000000000000000000081525081526020016040518060400160405280600781526020017f53706172726f770000000000000000000000000000000000000000000000000081525081526020016040518060400160405280600481526020017f437261620000000000000000000000000000000000000000000000000000000081525081526020016040518060400160405280600681526020017f4d6f6e6b6579000000000000000000000000000000000000000000000000000081525081526020016040518060400160405280600581526020017f566970657200000000000000000000000000000000000000000000000000000081525081526020016040518060400160405280600381526020017f446f67000000000000000000000000000000000000000000000000000000000081525081526020016040518060400160405280600381526020017f436174000000000000000000000000000000000000000000000000000000000081525081526020016040518060400160405280600581526020017f526176656e00000000000000000000000000000000000000000000000000000081525081526020016040518060400160405280600481526020017f576173700000000000000000000000000000000000000000000000000000000081525081526020016040518060400160405280600581526020017f4c656d757200000000000000000000000000000000000000000000000000000081525081526020016040518060400160405280600681526020017f506f6f646c65000000000000000000000000000000000000000000000000000081525081526020016040518060400160405280600681526020017f4c6f63757374000000000000000000000000000000000000000000000000000081525081526020016040518060400160405280600881526020017f537175697272656c000000000000000000000000000000000000000000000000815250815250600c90601462000ece9291906200112b565b5034801562000edc57600080fd5b506040518060400160405280600981526020017f5371756172654e465400000000000000000000000000000000000000000000008152506040518060400160405280600681526020017f5351554152450000000000000000000000000000000000000000000000000000815250816000908051906020019062000f619291906200109a565b50806001908051906020019062000f7a9291906200109a565b50505062000fc86040518060400160405280601e81526020017f54686973206973206d79204e465420636f6e74726163742e20576f616821000081525062000fce60201b620015371760201c565b620013b3565b6200106e8160405160240162000fe59190620012c7565b6040516020818303038152906040527f41304fac000000000000000000000000000000000000000000000000000000007bffffffffffffffffffffffffffffffffffffffffffffffffffffffff19166020820180517bffffffffffffffffffffffffffffffffffffffffffffffffffffffff83818316178352505050506200107160201b60201c565b50565b60008151905060006a636f6e736f6c652e6c6f679050602083016000808483855afa5050505050565b828054620010a8906200133d565b90600052602060002090601f016020900481019282620010cc576000855562001118565b82601f10620010e757805160ff191683800117855562001118565b8280016001018555821562001118579182015b8281111562001117578251825591602001919060010190620010fa565b5b509050620011279190620011f9565b5090565b8280548282559060005260206000209081019282156200117f579160200282015b828111156200117e5782518290805190602001906200116d9291906200109a565b50916020019190600101906200114c565b5b5090506200118e919062001218565b5090565b828054828255906000526020600020908101928215620011e6579160200282015b82811115620011e5578251829080519060200190620011d49291906200109a565b5091602001919060010190620011b3565b5b509050620011f5919062001218565b5090565b5b8082111562001214576000816000905550600101620011fa565b5090565b5b808211156200123c576000818162001232919062001240565b5060010162001219565b5090565b5080546200124e906200133d565b6000825580601f1062001262575062001283565b601f016020900490600052602060002090810190620012829190620011f9565b5b50565b60006200129382620012eb565b6200129f8185620012f6565b9350620012b181856020860162001307565b620012bc81620013a2565b840191505092915050565b60006020820190508181036000830152620012e3818462001286565b905092915050565b600081519050919050565b600082825260208201905092915050565b60005b83811015620013275780820151818401526020810190506200130a565b8381111562001337576000848401525b50505050565b600060028204905060018216806200135657607f821691505b602082108114156200136d576200136c62001373565b5b50919050565b7f4e487b7100000000000000000000000000000000000000000000000000000000600052602260045260246000fd5b6000601f19601f8301169050919050565b61447380620013c36000396000f3fe608060405234801561001057600080fd5b50600436106101215760003560e01c80636352211e116100ad578063b88d4fde11610071578063b88d4fde14610340578063c575757a1461035c578063c87b56dd1461038c578063de9d132f146103bc578063e985e9c5146103c657610121565b80636352211e1461027657806370a08231146102a657806395d89b41146102d6578063a22cb465146102f4578063b187301f1461031057610121565b8063095ea7b3116100f4578063095ea7b3146101c257806323b872dd146101de5780632de38d68146101fa5780633e0771831461022a57806342842e0e1461025a57610121565b806301ffc9a714610126578063060475901461015657806306fdde0314610174578063081812fc14610192575b600080fd5b610140600480360381019061013b9190612bb2565b6103f6565b60405161014d91906134da565b60405180910390f35b61015e6104d8565b60405161016b9190613795565b60405180910390f35b61017c6104e9565b60405161018991906134f5565b60405180910390f35b6101ac60048036038101906101a79190612c58565b61057b565b6040516101b9919061344a565b60405180910390f35b6101dc60048036038101906101d79190612b76565b610600565b005b6101f860048036038101906101f39190612a70565b610718565b005b610214600480360381019061020f9190612c58565b610778565b60405161022191906134f5565b60405180910390f35b610244600480360381019061023f9190612c04565b610896565b60405161025191906134f5565b60405180910390f35b610274600480360381019061026f9190612a70565b610acf565b005b610290600480360381019061028b9190612c58565b610aef565b60405161029d919061344a565b60405180910390f35b6102c060048036038101906102bb9190612a0b565b610ba1565b6040516102cd9190613795565b60405180910390f35b6102de610c59565b6040516102eb91906134f5565b60405180910390f35b61030e60048036038101906103099190612b3a565b610ceb565b005b61032a60048036038101906103259190612c58565b610e6c565b60405161033791906134f5565b60405180910390f35b61035a60048036038101906103559190612abf565b610f8a565b005b61037660048036038101906103719190612c58565b610fec565b60405161038391906134f5565b60405180910390f35b6103a660048036038101906103a19190612c58565b61110a565b6040516103b391906134f5565b60405180910390f35b6103c461125c565b005b6103e060048036038101906103db9190612a34565b6114a3565b6040516103ed91906134da565b60405180910390f35b60007f80ac58cd000000000000000000000000000000000000000000000000000000007bffffffffffffffffffffffffffffffffffffffffffffffffffffffff1916827bffffffffffffffffffffffffffffffffffffffffffffffffffffffff191614806104c157507f5b5e139f000000000000000000000000000000000000000000000000000000007bffffffffffffffffffffffffffffffffffffffffffffffffffffffff1916827bffffffffffffffffffffffffffffffffffffffffffffffffffffffff1916145b806104d157506104d0826115d0565b5b9050919050565b60006104e4600761163a565b905090565b6060600080546104f890613abb565b80601f016020809104026020016040519081016040528092919081815260200182805461052490613abb565b80156105715780601f1061054657610100808354040283529160200191610571565b820191906000526020600020905b81548152906001019060200180831161055457829003601f168201915b5050505050905090565b600061058682611648565b6105c5576040517f08c379a00000000000000000000000000000000000000000000000000000000081526004016105bc906136d5565b60405180910390fd5b6004600083815260200190815260200160002060009054906101000a900473ffffffffffffffffffffffffffffffffffffffff169050919050565b600061060b82610aef565b90508073ffffffffffffffffffffffffffffffffffffffff168373ffffffffffffffffffffffffffffffffffffffff16141561067c576040517f08c379a000000000000000000000000000000000000000000000000000000000815260040161067390613735565b60405180910390fd5b8073ffffffffffffffffffffffffffffffffffffffff1661069b6116b4565b73ffffffffffffffffffffffffffffffffffffffff1614806106ca57506106c9816106c46116b4565b6114a3565b5b610709576040517f08c379a000000000000000000000000000000000000000000000000000000000815260040161070090613615565b60405180910390fd5b61071383836116bc565b505050565b6107296107236116b4565b82611775565b610768576040517f08c379a000000000000000000000000000000000000000000000000000000000815260040161075f90613755565b60405180910390fd5b610773838383611853565b505050565b606060006107ac61078884611aaf565b60405160200161079891906133d7565b604051602081830303815290604052611c5c565b9050600a80549050816107bf9190613b95565b9050600a81815481106107fb577f4e487b7100000000000000000000000000000000000000000000000000000000600052603260045260246000fd5b90600052602060002001805461081090613abb565b80601f016020809104026020016040519081016040528092919081815260200182805461083c90613abb565b80156108895780601f1061085e57610100808354040283529160200191610889565b820191906000526020600020905b81548152906001019060200180831161086c57829003601f168201915b5050505050915050919050565b60608060006108e485856040516020016108b09190613203565b6040516020818303038152906040526040516020016108d092919061341b565b604051602081830303815290604052611c5c565b90506108ef81611c8f565b9150600082905080600281518110610930577f4e487b7100000000000000000000000000000000000000000000000000000000600052603260045260246000fd5b602001015160f81c60f81b81600381518110610975577f4e487b7100000000000000000000000000000000000000000000000000000000600052603260045260246000fd5b602001015160f81c60f81b826004815181106109ba577f4e487b7100000000000000000000000000000000000000000000000000000000600052603260045260246000fd5b602001015160f81c60f81b836005815181106109ff577f4e487b7100000000000000000000000000000000000000000000000000000000600052603260045260246000fd5b602001015160f81c60f81b84600681518110610a44577f4e487b7100000000000000000000000000000000000000000000000000000000600052603260045260246000fd5b602001015160f81c60f81b85600781518110610a89577f4e487b7100000000000000000000000000000000000000000000000000000000600052603260045260246000fd5b602001015160f81c60f81b604051602001610aa99695949392919061335c565b6040516020818303038152906040529250610ac383611537565b82935050505092915050565b610aea83838360405180602001604052806000815250610f8a565b505050565b6000806002600084815260200190815260200160002060009054906101000a900473ffffffffffffffffffffffffffffffffffffffff169050600073ffffffffffffffffffffffffffffffffffffffff168173ffffffffffffffffffffffffffffffffffffffff161415610b98576040517f08c379a0000000000000000000000000000000000000000000000000000000008152600401610b8f90613655565b60405180910390fd5b80915050919050565b60008073ffffffffffffffffffffffffffffffffffffffff168273ffffffffffffffffffffffffffffffffffffffff161415610c12576040517f08c379a0000000000000000000000000000000000000000000000000000000008152600401610c0990613635565b60405180910390fd5b600360008373ffffffffffffffffffffffffffffffffffffffff1673ffffffffffffffffffffffffffffffffffffffff168152602001908152602001600020549050919050565b606060018054610c6890613abb565b80601f0160208091040260200160405190810160405280929190818152602001828054610c9490613abb565b8015610ce15780601f10610cb657610100808354040283529160200191610ce1565b820191906000526020600020905b815481529060010190602001808311610cc457829003601f168201915b5050505050905090565b610cf36116b4565b73ffffffffffffffffffffffffffffffffffffffff168273ffffffffffffffffffffffffffffffffffffffff161415610d61576040517f08c379a0000000000000000000000000000000000000000000000000000000008152600401610d58906135d5565b60405180910390fd5b8060056000610d6e6116b4565b73ffffffffffffffffffffffffffffffffffffffff1673ffffffffffffffffffffffffffffffffffffffff16815260200190815260200160002060008473ffffffffffffffffffffffffffffffffffffffff1673ffffffffffffffffffffffffffffffffffffffff16815260200190815260200160002060006101000a81548160ff0219169083151502179055508173ffffffffffffffffffffffffffffffffffffffff16610e1b6116b4565b73ffffffffffffffffffffffffffffffffffffffff167f17307eab39ab6107e8899845ad3d59bd9653f200f220920489ca2b5937696c3183604051610e6091906134da565b60405180910390a35050565b60606000610ea0610e7c84611aaf565b604051602001610e8c91906132f5565b604051602081830303815290604052611c5c565b9050600b8054905081610eb39190613b95565b9050600b8181548110610eef577f4e487b7100000000000000000000000000000000000000000000000000000000600052603260045260246000fd5b906000526020600020018054610f0490613abb565b80601f0160208091040260200160405190810160405280929190818152602001828054610f3090613abb565b8015610f7d5780601f10610f5257610100808354040283529160200191610f7d565b820191906000526020600020905b815481529060010190602001808311610f6057829003601f168201915b5050505050915050919050565b610f9b610f956116b4565b83611775565b610fda576040517f08c379a0000000000000000000000000000000000000000000000000000000008152600401610fd190613755565b60405180910390fd5b610fe684848484611d15565b50505050565b60606000611020610ffc84611aaf565b60405160200161100c91906132d3565b604051602081830303815290604052611c5c565b9050600c80549050816110339190613b95565b9050600c818154811061106f577f4e487b7100000000000000000000000000000000000000000000000000000000600052603260045260246000fd5b90600052602060002001805461108490613abb565b80601f01602080910402602001604051908101604052809291908181526020018280546110b090613abb565b80156110fd5780601f106110d2576101008083540402835291602001916110fd565b820191906000526020600020905b8154815290600101906020018083116110e057829003601f168201915b5050505050915050919050565b606061111582611648565b611154576040517f08c379a000000000000000000000000000000000000000000000000000000000815260040161114b906136b5565b60405180910390fd5b600060066000848152602001908152602001600020805461117490613abb565b80601f01602080910402602001604051908101604052809291908181526020018280546111a090613abb565b80156111ed5780601f106111c2576101008083540402835291602001916111ed565b820191906000526020600020905b8154815290600101906020018083116111d057829003601f168201915b5050505050905060006111fe611d71565b9050600081511415611214578192505050611257565b600082511115611249578082604051602001611231929190613235565b60405160208183030381529060405292505050611257565b61125284611d88565b925050505b919050565b6000611268600761163a565b9050603281106112ad576040517f08c379a00000000000000000000000000000000000000000000000000000000081526004016112a490613775565b60405180910390fd5b60006112b882610778565b905060006112c583610e6c565b905060006112d284610fec565b905060008383836040516020016112eb93929190613259565b604051602081830303815290604052905060006113088233610896565b90506000600882600985604051602001611325949392919061328a565b604051602081830303815290604052905061133f81611537565b60006113738461134e84611e2f565b60405160200161135f929190613317565b604051602081830303815290604052611e2f565b905060008160405160200161138891906133f9565b60405160208183030381529060405290506113d76040518060400160405280601581526020017f0a2d2d2d2d2d2d2d2d2d2d2d2d2d2d2d2d2d2d2d2d0000000000000000000000815250611537565b6113e081611537565b61141e6040518060400160405280601581526020017f2d2d2d2d2d2d2d2d2d2d2d2d2d2d2d2d2d2d2d2d0a0000000000000000000000815250611537565b611428338a611fed565b611432898261200b565b61143c600761207f565b61145f6040518060600160405280602581526020016143d9602591398a33612095565b7febb98688741ffa4c7589bf325de30cf7becb63de567842e1ccdb6cb949fdc82c338a6040516114909291906134b1565b60405180910390a1505050505050505050565b6000600560008473ffffffffffffffffffffffffffffffffffffffff1673ffffffffffffffffffffffffffffffffffffffff16815260200190815260200160002060008373ffffffffffffffffffffffffffffffffffffffff1673ffffffffffffffffffffffffffffffffffffffff16815260200190815260200160002060009054906101000a900460ff16905092915050565b6115cd8160405160240161154b91906134f5565b6040516020818303038152906040527f41304fac000000000000000000000000000000000000000000000000000000007bffffffffffffffffffffffffffffffffffffffffffffffffffffffff19166020820180517bffffffffffffffffffffffffffffffffffffffffffffffffffffffff8381831617835250505050612134565b50565b60007f01ffc9a7000000000000000000000000000000000000000000000000000000007bffffffffffffffffffffffffffffffffffffffffffffffffffffffff1916827bffffffffffffffffffffffffffffffffffffffffffffffffffffffff1916149050919050565b600081600001549050919050565b60008073ffffffffffffffffffffffffffffffffffffffff166002600084815260200190815260200160002060009054906101000a900473ffffffffffffffffffffffffffffffffffffffff1673ffffffffffffffffffffffffffffffffffffffff1614159050919050565b600033905090565b816004600083815260200190815260200160002060006101000a81548173ffffffffffffffffffffffffffffffffffffffff021916908373ffffffffffffffffffffffffffffffffffffffff160217905550808273ffffffffffffffffffffffffffffffffffffffff1661172f83610aef565b73ffffffffffffffffffffffffffffffffffffffff167f8c5be1e5ebec7d5bd14f71427d1e84f3dd0314c0f7b2291e5b200ac8c7c3b92560405160405180910390a45050565b600061178082611648565b6117bf576040517f08c379a00000000000000000000000000000000000000000000000000000000081526004016117b6906135f5565b60405180910390fd5b60006117ca83610aef565b90508073ffffffffffffffffffffffffffffffffffffffff168473ffffffffffffffffffffffffffffffffffffffff16148061183957508373ffffffffffffffffffffffffffffffffffffffff166118218461057b565b73ffffffffffffffffffffffffffffffffffffffff16145b8061184a575061184981856114a3565b5b91505092915050565b8273ffffffffffffffffffffffffffffffffffffffff1661187382610aef565b73ffffffffffffffffffffffffffffffffffffffff16146118c9576040517f08c379a00000000000000000000000000000000000000000000000000000000081526004016118c0906136f5565b60405180910390fd5b600073ffffffffffffffffffffffffffffffffffffffff168273ffffffffffffffffffffffffffffffffffffffff161415611939576040517f08c379a0000000000000000000000000000000000000000000000000000000008152600401611930906135b5565b60405180910390fd5b61194483838361215d565b61194f6000826116bc565b6001600360008573ffffffffffffffffffffffffffffffffffffffff1673ffffffffffffffffffffffffffffffffffffffff168152602001908152602001600020600082825461199f919061397b565b925050819055506001600360008473ffffffffffffffffffffffffffffffffffffffff1673ffffffffffffffffffffffffffffffffffffffff16815260200190815260200160002060008282546119f6919061389a565b92505081905550816002600083815260200190815260200160002060006101000a81548173ffffffffffffffffffffffffffffffffffffffff021916908373ffffffffffffffffffffffffffffffffffffffff160217905550808273ffffffffffffffffffffffffffffffffffffffff168473ffffffffffffffffffffffffffffffffffffffff167fddf252ad1be2c89b69c2b068fc378daa952ba7f163c4a11628f55a4df523b3ef60405160405180910390a4505050565b60606000821415611af7576040518060400160405280600181526020017f30000000000000000000000000000000000000000000000000000000000000008152509050611c57565b600082905060005b60008214611b29578080611b1290613b1e565b915050600a82611b2291906138f0565b9150611aff565b60008167ffffffffffffffff811115611b6b577f4e487b7100000000000000000000000000000000000000000000000000000000600052604160045260246000fd5b6040519080825280601f01601f191660200182016040528015611b9d5781602001600182028036833780820191505090505b5090505b60008514611c5057600182611bb6919061397b565b9150600a85611bc59190613b95565b6030611bd1919061389a565b60f81b818381518110611c0d577f4e487b7100000000000000000000000000000000000000000000000000000000600052603260045260246000fd5b60200101907effffffffffffffffffffffffffffffffffffffffffffffffffffffffffffff1916908160001a905350600a85611c4991906138f0565b9450611ba1565b8093505050505b919050565b600081604051602001611c6f919061321e565b6040516020818303038152906040528051906020012060001c9050919050565b60606000821415611cd7576040518060400160405280600481526020017f30783030000000000000000000000000000000000000000000000000000000008152509050611d10565b600082905060005b60008214611d01578080611cf290613b1e565b915050600882901c9150611cdf565b611d0b8482612162565b925050505b919050565b611d20848484611853565b611d2c8484848461245c565b611d6b576040517f08c379a0000000000000000000000000000000000000000000000000000000008152600401611d6290613575565b60405180910390fd5b50505050565b606060405180602001604052806000815250905090565b6060611d9382611648565b611dd2576040517f08c379a0000000000000000000000000000000000000000000000000000000008152600401611dc990613715565b60405180910390fd5b6000611ddc611d71565b90506000815111611dfc5760405180602001604052806000815250611e27565b80611e0684611aaf565b604051602001611e17929190613235565b6040516020818303038152906040525b915050919050565b60606000825190506000811415611e585760405180602001604052806000815250915050611fe8565b60006003600283611e69919061389a565b611e7391906138f0565b6004611e7f9190613921565b90506000602082611e90919061389a565b67ffffffffffffffff811115611ecf577f4e487b7100000000000000000000000000000000000000000000000000000000600052604160045260246000fd5b6040519080825280601f01601f191660200182016040528015611f015781602001600182028036833780820191505090505b50905060006040518060600160405280604081526020016143fe604091399050600181016020830160005b86811015611fa55760038101905062ffffff818a015116603f8160121c168401518060081b905060ff603f83600c1c1686015116810190508060081b905060ff603f8360061c1686015116810190508060081b905060ff603f831686015116810190508060e01b90508084526004840193505050611f2c565b506003860660018114611fbf5760028114611fcf57611fda565b613d3d60f01b6002830352611fda565b603d60f81b60018303525b508484525050819450505050505b919050565b6120078282604051806020016040528060008152506125f3565b5050565b61201482611648565b612053576040517f08c379a000000000000000000000000000000000000000000000000000000000815260040161204a90613675565b60405180910390fd5b8060066000848152602001908152602001600020908051906020019061207a92919061282f565b505050565b6001816000016000828254019250508190555050565b61212f8383836040516024016120ad93929190613517565b6040516020818303038152906040527fe3849f79000000000000000000000000000000000000000000000000000000007bffffffffffffffffffffffffffffffffffffffffffffffffffffffff19166020820180517bffffffffffffffffffffffffffffffffffffffffffffffffffffffff8381831617835250505050612134565b505050565b60008151905060006a636f6e736f6c652e6c6f679050602083016000808483855afa5050505050565b505050565b6060600060028360026121759190613921565b61217f919061389a565b67ffffffffffffffff8111156121be577f4e487b7100000000000000000000000000000000000000000000000000000000600052604160045260246000fd5b6040519080825280601f01601f1916602001820160405280156121f05781602001600182028036833780820191505090505b5090507f30000000000000000000000000000000000000000000000000000000000000008160008151811061224e577f4e487b7100000000000000000000000000000000000000000000000000000000600052603260045260246000fd5b60200101907effffffffffffffffffffffffffffffffffffffffffffffffffffffffffffff1916908160001a9053507f7800000000000000000000000000000000000000000000000000000000000000816001815181106122d8577f4e487b7100000000000000000000000000000000000000000000000000000000600052603260045260246000fd5b60200101907effffffffffffffffffffffffffffffffffffffffffffffffffffffffffffff1916908160001a905350600060018460026123189190613921565b612322919061389a565b90505b600181111561240e577f3031323334353637383961626364656600000000000000000000000000000000600f86166010811061238a577f4e487b7100000000000000000000000000000000000000000000000000000000600052603260045260246000fd5b1a60f81b8282815181106123c7577f4e487b7100000000000000000000000000000000000000000000000000000000600052603260045260246000fd5b60200101907effffffffffffffffffffffffffffffffffffffffffffffffffffffffffffff1916908160001a905350600485901c94508061240790613a91565b9050612325565b5060008414612452576040517f08c379a000000000000000000000000000000000000000000000000000000000815260040161244990613555565b60405180910390fd5b8091505092915050565b600061247d8473ffffffffffffffffffffffffffffffffffffffff1661264e565b156125e6578373ffffffffffffffffffffffffffffffffffffffff1663150b7a026124a66116b4565b8786866040518563ffffffff1660e01b81526004016124c89493929190613465565b602060405180830381600087803b1580156124e257600080fd5b505af192505050801561251357506040513d601f19601f820116820180604052508101906125109190612bdb565b60015b612596573d8060008114612543576040519150601f19603f3d011682016040523d82523d6000602084013e612548565b606091505b5060008151141561258e576040517f08c379a000000000000000000000000000000000000000000000000000000000815260040161258590613575565b60405180910390fd5b805181602001fd5b63150b7a0260e01b7bffffffffffffffffffffffffffffffffffffffffffffffffffffffff1916817bffffffffffffffffffffffffffffffffffffffffffffffffffffffff1916149150506125eb565b600190505b949350505050565b6125fd8383612661565b61260a600084848461245c565b612649576040517f08c379a000000000000000000000000000000000000000000000000000000000815260040161264090613575565b60405180910390fd5b505050565b600080823b905060008111915050919050565b600073ffffffffffffffffffffffffffffffffffffffff168273ffffffffffffffffffffffffffffffffffffffff1614156126d1576040517f08c379a00000000000000000000000000000000000000000000000000000000081526004016126c890613695565b60405180910390fd5b6126da81611648565b1561271a576040517f08c379a000000000000000000000000000000000000000000000000000000000815260040161271190613595565b60405180910390fd5b6127266000838361215d565b6001600360008473ffffffffffffffffffffffffffffffffffffffff1673ffffffffffffffffffffffffffffffffffffffff1681526020019081526020016000206000828254612776919061389a565b92505081905550816002600083815260200190815260200160002060006101000a81548173ffffffffffffffffffffffffffffffffffffffff021916908373ffffffffffffffffffffffffffffffffffffffff160217905550808273ffffffffffffffffffffffffffffffffffffffff16600073ffffffffffffffffffffffffffffffffffffffff167fddf252ad1be2c89b69c2b068fc378daa952ba7f163c4a11628f55a4df523b3ef60405160405180910390a45050565b82805461283b90613abb565b90600052602060002090601f01602090048101928261285d57600085556128a4565b82601f1061287657805160ff19168380011785556128a4565b828001600101855582156128a4579182015b828111156128a3578251825591602001919060010190612888565b5b5090506128b191906128b5565b5090565b5b808211156128ce5760008160009055506001016128b6565b5090565b60006128e56128e0846137d5565b6137b0565b9050828152602081018484840111156128fd57600080fd5b612908848285613a4f565b509392505050565b600061292361291e84613806565b6137b0565b90508281526020810184848401111561293b57600080fd5b612946848285613a4f565b509392505050565b60008135905061295d8161437c565b92915050565b60008135905061297281614393565b92915050565b600081359050612987816143aa565b92915050565b60008151905061299c816143aa565b92915050565b600082601f8301126129b357600080fd5b81356129c38482602086016128d2565b91505092915050565b600082601f8301126129dd57600080fd5b81356129ed848260208601612910565b91505092915050565b600081359050612a05816143c1565b92915050565b600060208284031215612a1d57600080fd5b6000612a2b8482850161294e565b91505092915050565b60008060408385031215612a4757600080fd5b6000612a558582860161294e565b9250506020612a668582860161294e565b9150509250929050565b600080600060608486031215612a8557600080fd5b6000612a938682870161294e565b9350506020612aa48682870161294e565b9250506040612ab5868287016129f6565b9150509250925092565b60008060008060808587031215612ad557600080fd5b6000612ae38782880161294e565b9450506020612af48782880161294e565b9350506040612b05878288016129f6565b925050606085013567ffffffffffffffff811115612b2257600080fd5b612b2e878288016129a2565b91505092959194509250565b60008060408385031215612b4d57600080fd5b6000612b5b8582860161294e565b9250506020612b6c85828601612963565b9150509250929050565b60008060408385031215612b8957600080fd5b6000612b978582860161294e565b9250506020612ba8858286016129f6565b9150509250929050565b600060208284031215612bc457600080fd5b6000612bd284828501612978565b91505092915050565b600060208284031215612bed57600080fd5b6000612bfb8482850161298d565b91505092915050565b60008060408385031215612c1757600080fd5b600083013567ffffffffffffffff811115612c3157600080fd5b612c3d858286016129cc565b9250506020612c4e8582860161294e565b9150509250929050565b600060208284031215612c6a57600080fd5b6000612c78848285016129f6565b91505092915050565b612c8a816139af565b82525050565b612ca1612c9c826139af565b613b67565b82525050565b612cb0816139c1565b82525050565b612cc7612cc2826139cd565b613b79565b82525050565b6000612cd88261384c565b612ce28185613862565b9350612cf2818560208601613a5e565b612cfb81613c82565b840191505092915050565b6000612d118261384c565b612d1b8185613873565b9350612d2b818560208601613a5e565b80840191505092915050565b6000612d4282613857565b612d4c818561387e565b9350612d5c818560208601613a5e565b612d6581613c82565b840191505092915050565b6000612d7b82613857565b612d85818561388f565b9350612d95818560208601613a5e565b80840191505092915050565b60008154612dae81613abb565b612db8818661388f565b94506001821660008114612dd35760018114612de457612e17565b60ff19831686528186019350612e17565b612ded85613837565b60005b83811015612e0f57815481890152600182019150602081019050612df0565b838801955050505b50505092915050565b6000612e2d60208361387e565b9150612e3882613ca0565b602082019050919050565b6000612e5060328361387e565b9150612e5b82613cc9565b604082019050919050565b6000612e73601c8361387e565b9150612e7e82613d18565b602082019050919050565b6000612e96600a8361388f565b9150612ea182613d41565b600a82019050919050565b6000612eb960248361387e565b9150612ec482613d6a565b604082019050919050565b6000612edc60198361387e565b9150612ee782613db9565b602082019050919050565b6000612eff60638361388f565b9150612f0a82613de2565b606382019050919050565b6000612f22600b8361388f565b9150612f2d82613e7d565b600b82019050919050565b6000612f45602c8361387e565b9150612f5082613ea6565b604082019050919050565b6000612f68600d8361388f565b9150612f7382613ef5565b600d82019050919050565b6000612f8b60388361387e565b9150612f9682613f1e565b604082019050919050565b6000612fae602a8361387e565b9150612fb982613f6d565b604082019050919050565b6000612fd160298361387e565b9150612fdc82613fbc565b604082019050919050565b6000612ff4602e8361387e565b9150612fff8261400b565b604082019050919050565b600061301760028361388f565b91506130228261405a565b600282019050919050565b600061303a60208361387e565b915061304582614083565b602082019050919050565b600061305d60318361387e565b9150613068826140ac565b604082019050919050565b6000613080602c8361387e565b915061308b826140fb565b604082019050919050565b60006130a360298361387e565b91506130ae8261414a565b604082019050919050565b60006130c6602f8361387e565b91506130d182614199565b604082019050919050565b60006130e9600a8361388f565b91506130f4826141e8565b600a82019050919050565b600061310c60018361388f565b915061311782614211565b600182019050919050565b600061312f60218361387e565b915061313a8261423a565b604082019050919050565b6000613152600a8361388f565b915061315d82614289565b600a82019050919050565b6000613175601d8361388f565b9150613180826142b2565b601d82019050919050565b600061319860318361387e565b91506131a3826142db565b604082019050919050565b60006131bb60138361387e565b91506131c68261432a565b602082019050919050565b60006131de60058361388f565b91506131e982614353565b600582019050919050565b6131fd81613a45565b82525050565b600061320f8284612c90565b60148201915081905092915050565b600061322a8284612d70565b915081905092915050565b60006132418285612d70565b915061324d8284612d70565b91508190509392505050565b60006132658286612d70565b91506132718285612d70565b915061327d8284612d70565b9150819050949350505050565b60006132968287612da1565b91506132a28286612d70565b91506132ae8285612da1565b91506132ba8284612d70565b91506132c582612f5b565b915081905095945050505050565b60006132de82612e89565b91506132ea8284612d70565b915081905092915050565b600061330082612f15565b915061330c8284612d70565b915081905092915050565b6000613322826130dc565b915061332e8285612d70565b915061333982612ef2565b91506133458284612d70565b91506133508261300a565b91508190509392505050565b6000613367826130ff565b91506133738289612cb6565b6001820191506133838288612cb6565b6001820191506133938287612cb6565b6001820191506133a38286612cb6565b6001820191506133b38285612cb6565b6001820191506133c38284612cb6565b600182019150819050979650505050505050565b60006133e282613145565b91506133ee8284612d70565b915081905092915050565b600061340482613168565b91506134108284612d70565b915081905092915050565b6000613426826131d1565b91506134328285612d70565b915061343e8284612d06565b91508190509392505050565b600060208201905061345f6000830184612c81565b92915050565b600060808201905061347a6000830187612c81565b6134876020830186612c81565b61349460408301856131f4565b81810360608301526134a68184612ccd565b905095945050505050565b60006040820190506134c66000830185612c81565b6134d360208301846131f4565b9392505050565b60006020820190506134ef6000830184612ca7565b92915050565b6000602082019050818103600083015261350f8184612d37565b905092915050565b600060608201905081810360008301526135318186612d37565b905061354060208301856131f4565b61354d6040830184612c81565b949350505050565b6000602082019050818103600083015261356e81612e20565b9050919050565b6000602082019050818103600083015261358e81612e43565b9050919050565b600060208201905081810360008301526135ae81612e66565b9050919050565b600060208201905081810360008301526135ce81612eac565b9050919050565b600060208201905081810360008301526135ee81612ecf565b9050919050565b6000602082019050818103600083015261360e81612f38565b9050919050565b6000602082019050818103600083015261362e81612f7e565b9050919050565b6000602082019050818103600083015261364e81612fa1565b9050919050565b6000602082019050818103600083015261366e81612fc4565b9050919050565b6000602082019050818103600083015261368e81612fe7565b9050919050565b600060208201905081810360008301526136ae8161302d565b9050919050565b600060208201905081810360008301526136ce81613050565b9050919050565b600060208201905081810360008301526136ee81613073565b9050919050565b6000602082019050818103600083015261370e81613096565b9050919050565b6000602082019050818103600083015261372e816130b9565b9050919050565b6000602082019050818103600083015261374e81613122565b9050919050565b6000602082019050818103600083015261376e8161318b565b9050919050565b6000602082019050818103600083015261378e816131ae565b9050919050565b60006020820190506137aa60008301846131f4565b92915050565b60006137ba6137cb565b90506137c68282613aed565b919050565b6000604051905090565b600067ffffffffffffffff8211156137f0576137ef613c53565b5b6137f982613c82565b9050602081019050919050565b600067ffffffffffffffff82111561382157613820613c53565b5b61382a82613c82565b9050602081019050919050565b60008190508160005260206000209050919050565b600081519050919050565b600081519050919050565b600082825260208201905092915050565b600081905092915050565b600082825260208201905092915050565b600081905092915050565b60006138a582613a45565b91506138b083613a45565b9250827fffffffffffffffffffffffffffffffffffffffffffffffffffffffffffffffff038211156138e5576138e4613bc6565b5b828201905092915050565b60006138fb82613a45565b915061390683613a45565b92508261391657613915613bf5565b5b828204905092915050565b600061392c82613a45565b915061393783613a45565b9250817fffffffffffffffffffffffffffffffffffffffffffffffffffffffffffffffff04831182151516156139705761396f613bc6565b5b828202905092915050565b600061398682613a45565b915061399183613a45565b9250828210156139a4576139a3613bc6565b5b828203905092915050565b60006139ba82613a25565b9050919050565b60008115159050919050565b60007fff0000000000000000000000000000000000000000000000000000000000000082169050919050565b60007fffffffff0000000000000000000000000000000000000000000000000000000082169050919050565b600073ffffffffffffffffffffffffffffffffffffffff82169050919050565b6000819050919050565b82818337600083830152505050565b60005b83811015613a7c578082015181840152602081019050613a61565b83811115613a8b576000848401525b50505050565b6000613a9c82613a45565b91506000821415613ab057613aaf613bc6565b5b600182039050919050565b60006002820490506001821680613ad357607f821691505b60208210811415613ae757613ae6613c24565b5b50919050565b613af682613c82565b810181811067ffffffffffffffff82111715613b1557613b14613c53565b5b80604052505050565b6000613b2982613a45565b91507fffffffffffffffffffffffffffffffffffffffffffffffffffffffffffffffff821415613b5c57613b5b613bc6565b5b600182019050919050565b6000613b7282613b83565b9050919050565b6000819050919050565b6000613b8e82613c93565b9050919050565b6000613ba082613a45565b9150613bab83613a45565b925082613bbb57613bba613bf5565b5b828206905092915050565b7f4e487b7100000000000000000000000000000000000000000000000000000000600052601160045260246000fd5b7f4e487b7100000000000000000000000000000000000000000000000000000000600052601260045260246000fd5b7f4e487b7100000000000000000000000000000000000000000000000000000000600052602260045260246000fd5b7f4e487b7100000000000000000000000000000000000000000000000000000000600052604160045260246000fd5b6000601f19601f8301169050919050565b60008160601b9050919050565b7f537472696e67733a20686578206c656e67746820696e73756666696369656e74600082015250565b7f4552433732313a207472616e7366657220746f206e6f6e20455243373231526560008201527f63656976657220696d706c656d656e7465720000000000000000000000000000602082015250565b7f4552433732313a20746f6b656e20616c7265616479206d696e74656400000000600082015250565b7f54484952445f574f524400000000000000000000000000000000000000000000600082015250565b7f4552433732313a207472616e7366657220746f20746865207a65726f2061646460008201527f7265737300000000000000000000000000000000000000000000000000000000602082015250565b7f4552433732313a20617070726f766520746f2063616c6c657200000000000000600082015250565b7f222c20226465736372697074696f6e223a20224120686967686c79206163636c60008201527f61696d656420636f6c6c656374696f6e206f6620737175617265732e222c202260208201527f696d616765223a2022646174613a696d6167652f7376672b786d6c3b6261736560408201527f36342c0000000000000000000000000000000000000000000000000000000000606082015250565b7f5345434f4e445f574f5244000000000000000000000000000000000000000000600082015250565b7f4552433732313a206f70657261746f7220717565727920666f72206e6f6e657860008201527f697374656e7420746f6b656e0000000000000000000000000000000000000000602082015250565b7f3c2f746578743e3c2f7376673e00000000000000000000000000000000000000600082015250565b7f4552433732313a20617070726f76652063616c6c6572206973206e6f74206f7760008201527f6e6572206e6f7220617070726f76656420666f7220616c6c0000000000000000602082015250565b7f4552433732313a2062616c616e636520717565727920666f7220746865207a6560008201527f726f206164647265737300000000000000000000000000000000000000000000602082015250565b7f4552433732313a206f776e657220717565727920666f72206e6f6e657869737460008201527f656e7420746f6b656e0000000000000000000000000000000000000000000000602082015250565b7f45524337323155524953746f726167653a2055524920736574206f66206e6f6e60008201527f6578697374656e7420746f6b656e000000000000000000000000000000000000602082015250565b7f227d000000000000000000000000000000000000000000000000000000000000600082015250565b7f4552433732313a206d696e7420746f20746865207a65726f2061646472657373600082015250565b7f45524337323155524953746f726167653a2055524920717565727920666f722060008201527f6e6f6e6578697374656e7420746f6b656e000000000000000000000000000000602082015250565b7f4552433732313a20617070726f76656420717565727920666f72206e6f6e657860008201527f697374656e7420746f6b656e0000000000000000000000000000000000000000602082015250565b7f4552433732313a207472616e73666572206f6620746f6b656e2074686174206960008201527f73206e6f74206f776e0000000000000000000000000000000000000000000000602082015250565b7f4552433732314d657461646174613a2055524920717565727920666f72206e6f60008201527f6e6578697374656e7420746f6b656e0000000000000000000000000000000000602082015250565b7f7b226e616d65223a202200000000000000000000000000000000000000000000600082015250565b7f2300000000000000000000000000000000000000000000000000000000000000600082015250565b7f4552433732313a20617070726f76616c20746f2063757272656e74206f776e6560008201527f7200000000000000000000000000000000000000000000000000000000000000602082015250565b7f46495253545f574f524400000000000000000000000000000000000000000000600082015250565b7f646174613a6170706c69636174696f6e2f6a736f6e3b6261736536342c000000600082015250565b7f4552433732313a207472616e736665722063616c6c6572206973206e6f74206f60008201527f776e6572206e6f7220617070726f766564000000000000000000000000000000602082015250565b7f4d617820737570706c7920726561636865642100000000000000000000000000600082015250565b7f434f4c4f52000000000000000000000000000000000000000000000000000000600082015250565b614385816139af565b811461439057600080fd5b50565b61439c816139c1565b81146143a757600080fd5b50565b6143b3816139f9565b81146143be57600080fd5b50565b6143ca81613a45565b81146143d557600080fd5b5056fe416e204e465420772f20494420257320686173206265656e206d696e74656420746f2025734142434445464748494a4b4c4d4e4f505152535455565758595a6162636465666768696a6b6c6d6e6f707172737475767778797a303132333435363738392b2fa2646970667358221220d42a0e3e0dc9fb4676d1b8e13610231b92dcff0134298bc52ee582d55dbaeb4a64736f6c634300080400333c73766720786d6c6e733d27687474703a2f2f7777772e77332e6f72672f323030302f73766727207072657365727665417370656374526174696f3d27784d696e594d696e206d656574272076696577426f783d273020302033353020333530273e3c7374796c653e2e62617365207b2066696c6c3a2077686974653b20666f6e742d66616d696c793a2073657269663b20666f6e742d73697a653a20323470783b207d3c2f7374796c653e3c726563742077696474683d273130302527206865696768743d2731303025272066696c6c3d27272f3e3c7465787420783d273530252720793d273530252720636c6173733d27626173652720646f6d696e616e742d626173656c696e653d276d6964646c652720746578742d616e63686f723d276d6964646c65273e",
  "linkReferences": {},
  "deployedLinkReferences": {}
}